:100000000C9434000C943E000C943E000C943E0082
:100010000C943E000C943E000C943E000C943E0068
:100020000C943E000C943E000C943E000C943E0058
:100030000C943E000C943E000C943E000C943E0048
:100040000C9458000C943E000C943E000C943E001E
:100050000C943E000C943E000C943E000C943E0028
:100060000C943E000C943E0011241FBECFEFD8E04C
:10007000DEBFCDBF0E9440000C945F000C940000D6
:1000800008E00EBF0FEF0DBF259A41E040936E00D0
:10009000789440E046BD40E044BD45E045BD47B9E9
:1000A0004FEF48B94AB946B14BB90C945300089583
:1000B00005B110E2012705B900E006BD1895F894D6
:0200C000FFCF70
:00000001FF
